:020000040800F2
:10000000482900208D9B00088799000889990008DD
:100010009199000899990008A19900080000000032
:10002000000000000000000000000000A999000886
:10003000AB9900080000000007580008DB4A0008E0
:10004000CD9B0008D19B0008D59B0008E1990008D2
:10005000DD9B0008E19B0008B1990008C9990008E0
:10006000ED9B0008F19B0008F59B0008F99B000838
:10007000FD9B0008019C0008059C0008099C0008E5
:100080000D9C0008119C0008C5170008199C000869
:100090001D9C0008219C0008259C0008299C000844
:1000A000AF990008319C0008359C0008399C000875
:1000B000ED000008419C0008459C0008499C000890
:1000C0004D9C0008519C0008559C0008599C000854
:1000D0005D9C0008A14C0008E995000865970008A0
:1000E0006D9C0008719C0008759C000880B501217A
:1000F0004FF0804002F0CFF800280DD001214FF0E2
:10010000804002F0D4F800214FF0804002F073F8F4
:100110000020DFF8C41C087001BD01B582B06A463A
:100120000021029802F0DAF807BD10B582B00FF294
:10013000280002F075F94FF40071DFF8A00C02F00E
:1001400007FADFF89C4C01202076684602F019F986
:1001500060620120E07513BD706F7765725F6F6E2E
:100160005F736D617274206361726428290D0A00E7
:1001700080B50FF2200002F053F94FF40071DFF860
:100180005C0C02F0E3F9DFF8D40D0021C1750176B3
:1001900001BD0000706F7765725F6F66665F736D9B
:1001A000617274206361726428290D0A00000000E6
:1001B000F8B504460D462E46DFF8207C04E03046B4
:1001C000FFF7ABFF02F005FA002C0ED020213846D5
:1001D00002F0BCF93046FFF7A0FF2021384602F0BC
:1001E000B7F9641EE4B2002CE9D1F1BD10B50446A4
:1001F00021460FF28C0002F013F9002C05D0022CDE
:1002000026D021D3032C28D010BDDFF8D04B0121FC
:10021000204602F09BF94FF47A70FFF77EFF012130
:10022000204602F095F96420FFF777FF0121204670
:1002300002F08CF94FF49670FFF76FFF0121204612
:10024000BDE8104002F084B93220BDE8104064E7F8
:100250004FF42F70BDE810405FE7DFF8804B0121BD
:10026000204602F073F94FF44870FFF756FF012162
:10027000204602F06DF96420BDE810404DE7000013
:10028000636F6E74726F6C5F6361725F706F7765BE
:1002900072282564290D0A0038B50FF29C0002F07F
:1002A000BFF8DFF83C4BA07D032840D0207E01281A
:1002B00001D0FFF73AFF4FF49670FFF72EFF0FF2D1
:1002C000900002F0ADF80FF2980002F0A9F8DFF804
:1002D0000C5B0221284602F039F94FF40051284600
:1002E00002F034F94FF41670FFF717FF4FF4005186
:1002F000284602F02DF90FF2780002F091F8032061
:10030000FFF774FF0FF27C0002F08AF84FF4C87018
:10031000FFF703FF0221284602F01AF90FF27800D6
:1003200002F07EF8684602F02CF8606231BD0FF2F0
:10033000780002F075F831BD63746C5F6361725FC1
:1003400072656D6F74655F73746172740D0A00007D
:10035000B3B5C1BECEB4B7A2B6AF0D0A000000005F
:10036000C4A3C4E2B2C8C9B2B3B50D0A000000000C
:10037000D4B6B3CCB7A2B6AF2121212121210D0AD9
:1003800000000000C4A3C4E2B2C8C9B2B3B5CACD6C
:10039000B7C521210D0A0000D4B6B3CCC6F4B6AF60
:1003A0004F4B0D0A0D0A0000B3B5C1BED2D1C6F441
:1003B000B6AFA3ACCEDED0E8D4D9B4CEC6F4B6AFD7
:1003C0000D0A0D0A0000000080B50FF2200002F0B7
:1003D00027F80020FFF70AFFC820FFF79EFE0FF264
:1003E0002800BDE8024002F01BB8000063746C5F97
:1003F0006361725F72656D6F74655F73746F702E89
:100400002E2E0D0A00000000CFA8BBF0B3C9B9A67C
:100410000D0A000038B50121DFF8480B02F09AF808
:100420004FF6FF70ADF8000004208DF803000120A6
:100430008DF80200DFF8304B6946204602F030F8B4
:10044000DFF898596946284602F02AF80220ADF8EC
:10045000000004208DF803006946204602F020F8D1
:100460008020ADF8000048208DF803006946204642
:1004700002F016F848F20100ADF8000004208DF8F3
:1004800003006946204602F00BF87020ADF800002A
:1004900010208DF803006946204602F001F8012083
:1004A000ADF8000048208DF803006946204601F0B1
:1004B000F7FF4FF48870ADF8000048208DF8030076
:1004C0006946284601F0ECFF4FF22320ADF800000A
:1004D00010208DF803006946284601F0E1FFC02096
:1004E000ADF8000018208DF803006946284601F099
:1004F000D7FF4FF48051284602F02AF84FF40051FC
:10050000284602F025F84FF48041284602F020F8F2
:100510004FF40041284602F01BF80121284602F062
:1005200017F82021284602F013F831BD2DE9F043D9
:1005300099B005460C461646402701A8602102F0F6
:1005400059F8684602F087F92401E4B2002001A9B5
:1005500005E00023435401205054501CC0B2A04277
:1005600015DA421CD2B203115B5D4FF0010CC0F3EF
:10057000420ECEF1070E0CFA0EFC13EA0C0FE8D176
:100580000123435400205054501CC0B2E7E7DFF869
:1005900048580120287001464FF0804001F02BFEA2
:1005A000DFF8C48D0121404601F025FE01214046BF
:1005B00001F02DFE00221146404601F05BFE0022B4
:1005C0000421404601F056FE00214FF0804001F02A
:1005D0005EFE72B64FF0000916E0484410F8010CB8
:1005E000002804D101223146404601F043FE4FF07D
:1005F000804001F04EFEB84202DA28780128F6D099
:100600004037BFB209F10109B9F12A0F14DAB9F183
:10061000000F05D101223146404601F02BFEE6E7EE
:100620000FF2B40019F800100029D6D1002231468B
:10063000404601F01FFEDAE74FF0000919E001A87B
:10064000484410F8010C002804D1012231464046EC
:1006500001F010FE4FF0804001F01BFEB84202DABC
:1006600028780128F6D04037BFB209F101095FFAB6
:1006700089F9A14518DAB9F1000F0AD19DF80400F3
:10068000421E9241D243D20F3146404601F0F2FD64
:10069000E0E701A819F800000028D0D10022314677
:1006A000404601F0E7FDD5E762B6002231464046FC
:1006B00001F0E0FD00214FF0804001F09CFD0021A1
:1006C000404601F098FD00202870684602F0F2F8DC
:1006D00019B0BDE8F0830000010001000100010035
:1006E0000100010001000100010001000100010002
:1006F00001010100000001000101000001010000F2
:100700000100000000B585B0DFF8D4164A8C104611
:10071000000A8DF8080002A842704A7F8270882380
:100720008DF80B308B7F5B1C8B7707210B420CD134
:1007300088210191009243789DF80820DFF8100D80
:1007400041780FF2200001F06BFE0022042102A884
:10075000FFF7ECFE0422114602A8FFF7E7FE05B002
:1007600000BD00004157414B453A284B4559207484
:100770006F74616C3A2564292849443A253032580F
:100780002C253032582928444154413A25303258DA
:100790002C25303258290D0A0000000000B585B024
:1007A00001F017FFDFF83816887D032805D10FF216
:1007B000780001F035FE012034E0DFF8940C90F869
:1007C0002120032A02DB002280F821200020ADF83E
:1007D000080002AA4B8C1846000A9070D370487E1D
:1007E0001071C14351710190D0780090937800222C
:1007F00011460FF2400001F013FE0022052102A86D
:10080000FFF794FE0422052102A8FFF78FFE0022C5
:10081000052102A8FFF78AFE0422052102A8FFF79E
:1008200085FE002005B000BD63616E63656C2042EB
:100830000D0A0000B7A2CBCDB5CDC6B5D1A7CFB0BC
:10084000B0B4BCFCC3FCC1EE3A28253032582C258C
:100850003032582C253032582C253032582C253047
:100860003258290D0A00000010B5044602F011FCB0
:10087000DFF8E816896A030C93EA106292EA102204
:10088000504090EA1120484020706178A278504092
:1008900080F0EC00484060700221204602F0C2FD6A
:1008A000A0700020E07010BD30B585B0DFF8AC5608
:1008B000688C40F3072181F0FF0109B28DF80C101C
:1008C00003ACC0B2C043607005F11000FFF7CCFF6D
:1008D000687FE8742869C4F802009DF8110002904E
:1008E000207901909DF80F000090A37862789DF820
:1008F0000C100FF2200001F093FD0022062103A846
:10090000FFF714FE0422062103A8FFF70FFE05B02F
:1009100030BD0000B7A2CBCDC6F4B6AFD0A3D1E9AD
:100920002E2E2E253032582C253032582C253032A0
:10093000582C253032582C253032582C253032583E
:100940000D0A000049080B4613419BB25A18824217
:1009500002DBC91A884201DA002070470120704783
:100960002DE9F14F82B00C460025684601F073FF77
:100970004FF6FF704FF4FA7101FB140B1FFA8BFB5B
:10098000DFF854640120307001464FF0804001F0E0
:1009900032FC59464FF0804001F079FCDFF8C87511
:1009A0000121384601F0CBFD012802D13078012821
:1009B000F6D04FF0804001F06CFC00F11404A4B2BA
:1009C0004FF0804001F065FCA04202DA3078012847
:1009D000F6D00121384601F0B2FD012802D130786D
:1009E0000128F6D04FF0804001F053FC8046A8EB80
:1009F0000B090121384601F0A2FD002802D1307810
:100A00000128F6D04FF0804001F043FC00F1140AB9
:100A10001FFA8AFA4FF0804001F03BFC504502DAA1
:100A200030780128F6D00121384601F088FD0028F1
:100A300002D130780128F6D04FF0804001F029FC37
:100A40008346ABEB08043078002800F07F8040F24A
:100A5000271802224146484680B2FFF773FF00285C
:100A600007D002224146204680B2FFF76BFF0028E4
:100A700001D1002501E06D1CEDB228460C288FDB6A
:100A800000214FF0804001F002FC4FF00008424688
:100A90000F21029802F014FE0120307040F24E2522
:100AA0000121384601F04BFD002802D130780128A1
:100AB000F6D04FF0804001F0ECFB00F11404A4B23A
:100AC0004FF0804001F0E5FBA04202DA30780128C7
:100AD000F6D00121384601F032FD002802D13078ED
:100AE0000128F6D04FF0804001F0D3FB8346ABEBFA
:100AF00008040121384601F022FD012802D1307896
:100B00000128F6D04FF0804001F0C3FB00F1140A39
:100B10001FFA8AFA4FF0804001F0BBFB504502DA21
:100B200030780128F6D00121384601F008FD01286F
:100B300002D130780128F6D04FF0804001F0A9FBB7
:100B40008046A8EB0B093078002804D1684601F0F4
:100B5000B1FE00209BE002222946204680B2FFF72A
:100B6000F1FE01289CD102222946484680B2FFF7B7
:100B7000E9FE012894D100214FF0804001F087FB6D
:100B80004FF0804001F085FB932802DA307801288D
:100B9000F6D000214FF0804001F079FB02254FF0A4
:100BA0000009C8460121384601F0C9FC484502D178
:100BB00030780128F6D04FF0804001F06AFB00F158
:100BC000140A1FFA8AFA4FF0804001F062FB504588
:100BD00002DA30780128F6D00121384601F0AFFC66
:100BE000484502D130780128F6D04FF0804001F01E
:100BF00050FB8346ABEB08044EF66120834506DBD1
:100C00004FF0000B02214FF0804001F040FBD8462E
:100C1000B9F1010969EB09094FEAD979A4B240F2A7
:100C20004F20844228DAC42C12DA6D1CEDB228461B
:100C3000C0071CD528110299415C6A1002F0070216
:100C4000C2F1070209FA02F21143029A81540EE03E
:100C5000AD1CEDB228110299415C6A1002F0070246
:100C6000C2F1070209FA02F21143029A8154EE2DF1
:100C700002DA3078012895D000214FF0804001F051
:100C8000BAFA00203070684601F014FE2809BDE869
:100C9000FE8F2DE9F84304460FF2481001F0C0FB27
:100CA00000264F4D05E0715D0FF6F42001F0B8FB12
:100CB000761C0C2EF7DBAAA6304601F0B1FB687853
:100CC000E32803D1E81C02F059FD04E0C12802D159
:100CD000E81C02F06CFE0FF2141001F0A1FB0027DB
:100CE00005E0795D0FF6B82001F09AFB7F1C0C2F10
:100CF000F7DB304601F094FBE87AA97A00F0F002C5
:100D0000914209D07F2807D0492805D00FF2E4008E
:100D100001F086FB00205DE00020A872DFF830675C
:100D20007178002951D00FF2EC0001F079FB002717
:100D300009E006EB8700C26839460FF2F40001F0C3
:100D40006FFB7F1CFFB270788742F2DBD5F803108F
:100D50000FF2F00001F064FBD5F803704FF00009CA
:100D60000CE0401E814505D1D5F803200FF2E800C4
:100D700001F056FB09F101095FFA89F970788145A4
:100D800027DA06EB8908D8F80C10B942E9D1D5F872
:100D90000700D8F82410401A000206D100210FF2F3
:100DA000E40001F03DFB002014E00FF2F80001F038
:100DB00037FB002C00D02760D5F80700C8F82400C6
:100DC000304602F0A4FB012004E00FF2E80001F03D
:100DD00027FB0020BDE8F28346250020000C0140DF
:100DE000FC010020BDE2C3DCC7B03A00BDE2C3DCB9
:100DF000BAF33A00BDE2C3DCBAF3BCFCD6B5D3EB20
:100E0000C3F7CEC4BCFCD6B5B2BBD2BBD6C2200D94
:100E10000A0000002D2D2DD2D1D1A7CFB0D2A3BF73
:100E2000D8CAFDC1BF3A25642D2D2D0D0A00000042
:100E30004C4F43414C5B25645D3D3078253038583C
:100E40000D0A0000525820726669643D20307825F2
:100E5000303858200D0A00004944B2BBC6A5C5E48D
:100E600021212121214C4F43414C3D253038582C24
:100E700052583D25303858212121210D0A0D0A0DE7
:100E80000A000000BCC6CAFDB2BDBDF8B2BBD4DAD0
:100E9000B7B6CEA7C4DA2D2DB2EED6B53A2025646A
:100EA000200D0A00D2A3BFD8C3FCC1EED3D0D0A777
:100EB0000D0A0000CEB4D1A7CFB052463630B5C42B
:100EC00049440D0A0000000010B582B0234C206B8D
:100ED000002813D0684601F054FA216B401AB0F58F
:100EE0007A7F0BD90FF2840001F09AFA0020206378
:100EF0004FF48041DFF8240C01F02AFB606B0028DE
:100F000013D0684601F03DFA616B401AB0F57A7F64
:100F10000BD90FF2680001F083FA002060634FF4F0
:100F20008051DFF8F80B01F013FBA06B002813D001
:100F3000684601F026FAA16B401AB0F57A7F0BD90A
:100F40000FF24C0001F06CFA0020A0634FF4005146
:100F5000DFF8C80B01F0FCFA13BD0000FC01002013
:100F60000D0A000000023000000801404B45595FA7
:100F70005452554E4B5F4F46460D0A004B45595F44
:100F8000554E4C4F434B5F4F46460D0A0000000044
:100F90004B45595F4C4F434B5F4F46460D0A00008F
:100FA00038B51C2871D02A2800F0C980462811D0F5
:100FB000492800F04D817F2800F01B81B0F58E7F1D
:100FC00000F08980B0F5957F00F0DF80B0F5A37F59
:100FD0002AD031BDDFF8484B217E0FF65C3001F09E
:100FE0001FFA207E002806D1FFF79FF84FF41670F5
:100FF000FFF793F803E0684601F0C3F960626846C2
:1010000001F0BFF9E063DFF8144B4FF48041204654
:1010100001F09CFA4FF4AF70FFF77FF84FF4804176
:10102000204601F095FA31BD684601F0AAF9DFF8D3
:10103000F04AE16B01F57A71884221D2684601F0ED
:10104000A0F9E063217E0FF6183001F0E9F9207E67
:10105000002806D1FFF769F84FF42F70FFF75DF80D
:1010600003E0684601F08DF960624FF48041DFF8DB
:10107000AC0A01F06BFA684601F083F9206331BDD8
:101080000FF6043001F0CCF931BDDFF8944A217E2F
:101090000FF6103001F0C4F9207E002806D1FFF7CA
:1010A00044F84FF44870FFF738F803E0684601F061
:1010B00068F96062684601F064F920644FF4805179
:1010C000DFF8580A01F042FA0020E075684601F0A6
:1010D00058F9606331BD684601F053F9DFF8404AC2
:1010E000216C01F57A71884223D2684601F049F9F2
:1010F0002064217E0FF6D42001F092F9207E002892
:1011000006D1FFF712F84FF44870FFF706F803E036
:10111000684601F036F960624FF48051DFF8FC094F
:1011200001F014FA684601F02CF960630020E075C4
:1011300031BD217E0FF6BC2001F072F931BDDFF820
:10114000E049217E0FF6D82001F06AF9207E0028C0
:1011500006D1FEF7EAFF4FF44870FEF7DEFF05E028
:10116000684601F00EF960620120E075684601F002
:1011700008F960644FF40051DFF8A00901F0E6F9C6
:10118000684601F0FEF8A06331BD684601F0F9F849
:10119000DFF88C49616C01F57A71884223D2684688
:1011A00001F0EFF86064217E0FF69C2001F038F921
:1011B000207E002806D1FEF7B8FF4FF44870FEF7F6
:1011C000ACFF05E0684601F0DCF860620120E075E4
:1011D0004FF40051DFF8440901F0B8F9684601F016
:1011E000D0F8A06331BD217E0FF6842001F018F9FC
:1011F00031BD64210120FEF7DBFFDFF82859022111
:10120000284601F09CF900281DD10FF6902001F02E
:1012100007F9FFF741F8DFF808490020A07602211E
:10122000284601F08CF9E07601212177002833D19E
:101230001E210A20FEF7BCFF0FF6782001F0F0F81F
:101240000020207731BD0FF6842001F0E9F831BD90
:1012500064210120FEF7ACFFDFF8C85802212846C0
:1012600001F06DF9012813D1DFF8B448A07E002801
:101270000ED1207F01280BD10FF6702001F0D0F89D
:10128000FFF7A2F80221284601F059F9E07631BDB6
:101290000FF6702001F0C4F831BD2DE9F8430024A9
:1012A000204600906A4D69780FF6782001F0B8F872
:1012B000DFF86C7801E001F08CF9E4B226460320F7
:1012C00096FBF0F000EB4000301A01D1FFF7ECFA8A
:1012D000B4213846FFF744FB8046B8F1070F38DBEE
:1012E00041460FF6602001F09BF84FF0000906E040
:1012F000C15D0FF2AC4001F093F809F101095FFA0A
:1013000089F9484608F101018842F1DB51A001F05A
:1013100087F86846FFF7BDFC01281AD1787F05EBF6
:101320008000C0680099884211D000240BE005EBD2
:101330008100C068009A904204D10FF6242001F089
:101340006FF87C77641CE4B221460429EFDB0120AE
:1013500007E0641C1E2EAEDB0FF6502001F060F893
:101360000020BDE8F28300000008004070B5DFF8FF
:10137000B0470F212046FFF7F3FA0546207D0028ED
:1013800003D100206075208401E0401E2075002DEF
:101390003CD06078C12801D0E32837D1A17800295A
:1013A00034D12178502932D1E07860750020FFF7E0
:1013B00070FC002805D10FF61C20BDE8704001F03C
:1013C0002FB80FF6342001F02BF80FF6382001F07B
:1013D00027F8002605E0015D0FF2C43001F020F887
:1013E000761CF6B23046691C8842F4DB19A001F085
:1013F00017F8E07A208428202075218C0FF6202011
:1014000001F00EF8208CBDE87040C9E570BD51298F
:10141000FCD1E328FAD10FF6FC1001F001F8002608
:1014200005E0015D0FF2783000F0FAFF761CF6B2AD
:101430003046691C8842F4DB06A000F0F1FF607DB5
:10144000401C6075207940F480702084D5E700004E
:10145000241E00200D0A00002DE9F04F9DB003A8C6
:10146000342101F0C7F810A8342101F0C3F800249A
:10147000A0462546204602900190DFF8A4667076CB
:101480000246342103A802F0B1FB01F0A2F840F2B9
:10149000E24739460120FEF78BFE01F09AF8384604
:1014A000FEF73BFE01F095F83846FEF736FE01F0F8
:1014B00090F839460120FEF77BFE01F08AF8684675
:1014C00000F05FFF074602E00A20FEF726FE4FF419
:1014D0008071DFF8480601F032F8002806D108F1E3
:1014E00001085FFA88F8B8F1040FEDDBB8F1040FDA
:1014F00001DB012001900FF6401000F091FF0FF288
:10150000C02903E0D6F8030002900125042C80F2E4
:10151000EF8001F05EF832213046FFF721FA824673
:10152000BAF10A0FC0F2C78051460FF61C1000F046
:1015300077FF4FF000080AF1010B06E0815D0FF222
:10154000602000F06DFF08F101085FFA88F840465E
:101550005845F3DB484600F063FF30785028D5D17A
:10156000B0780028D2D1F07A4928CFD17078E3281A
:101570001AD1F01C02F002F951460FF6E40000F017
:101580004FFF4FF0000806E0815D0FF2142000F0DD
:1015900047FF08F101085FFA88F840465845F3DB39
:1015A000484600F03DFF04E0C128AFD1F01C02F036
:1015B000FEF9F27AB17A02F0F000814203D00FF620
:1015C000AC0000F02DFF012D04D10298D6F80310D5
:1015D00088429BD1002D95D00025012C0AD1D6F848
:1015E00003000699884205D101460FF6A40000F0D9
:1015F00017FF8BE7022C0ED1D6F80300069988421C
:1016000003D006A94968884205D101460FF6940027
:1016100000F006FF7AE7032C14D1D6F803000699F0
:10162000884208D006A8D6F803104268914202D03A
:101630008068814206D1D6F803100FF67C0000F0D6
:10164000EFFE63E703A800EB8407D6F80300F86019
:10165000D6F807000002000A7862F86880F4254096
:1016600080F069004FF6FE71084003A901EB4401C8
:10167000488096210120FEF79BFD484600F0D0FEF1
:10168000F9680FF6480000F0CBFE796A0FF65000BB
:1016900000F0C6FE641CE4B221460FF6580000F0CC
:1016A000BFFE707E401C7076684600F06AFE0746FA
:1016B000C820FEF732FD684600F063FE019901295B
:1016C00001D1042100E00221C01B41F2717290425D
:1016D00002D2707E88424CD30FF62C0000F0A0FEA0
:1016E00032210420FEF764FD4FF49670FEF715FDDD
:1016F00021460FF6280000F093FE002C36D020463D
:101700008DF80D0006A800214175DFF81C5495F8EE
:101710002310C17521460FF6240000F081FE34220B
:1017200003A9284602F090FA284601F0A8FE0028F6
:1017300002D1284601F0A3FE284601F0E8FE10A8D9
:1017400001F052FF10A801F072FF3422294610A8C0
:1017500002F0A6FA002804D121460FF6040000F09A
:101760005FFE4FF4FA712046FEF722FD1DB0BDE882
:10177000F08F00F02EFF684601F06DF8FFF70EF8CD
:101780000128684606D101F095F832210420FEF7C1
:101790000FFDADE701F08EF80520FEF7BEFCB5E6C3
:1017A000253032582C00000070470178002906D1FE
:1017B0004178012903D14088032800D1F4E770471C
:1017C0000D0A000070B50024D84D0221284602F011
:1017D000A7FA012874D1D64E284602F09EFA70630B
:1017E0003078022817D1F06AB16B0818716B884203
:1017F00011D2B07801280ED1F078411CF1700A2185
:1018000090FBF1F101EB8102B0EB420003D10FF24A
:10181000807000F005FE307800282AD17078716B56
:1018200006EB40029180401C7070C0B2142816DB99
:10183000214604E006EB400080880419491CC9B227
:1018400008461428F6DB0020707001203070142048
:10185000B4FBF0F0F0620FF2487000F0E1FD707838
:10186000142190FBF1F101EB8102A0EB820070707A
:1018700020E001281ED17078716B06EB4002918048
:10188000401C7070214604E006EB42029288141955
:10189000491CC9B20A46142AF6DB1421B4FBF1F143
:1018A0003163C0B2142190FBF1F101EB8102A0EB96
:1018B0008200707000212846BDE8704002F022BA14
:1018C00070BD38B5954C4FF48071204600F037FE5E
:1018D00000281ED1012502E000F07BFE6D1C962D34
:1018E0000AD20A2001F0CFFB4FF48071204600F0AD
:1018F00026FE0128F0D10025002D0AD00FF2BC6091
:1019000000F08EFDFFF7A8FDC820BDE8324001F0D1
:10191000BABB31BD80B545F2555000F051FE0620EE
:1019200000F051FE4FF4487000F050FE00F051FE00
:10193000BDE8014000F052BE2DE9FC4100263446CE
:101940004FF40071754800F001FE7A48744D8168CB
:10195000A9620068E862744F384601F045FE3846D7
:1019600001F065FE0520FEF7D8FB6E4F02213846D8
:1019700000F0E5FDE87634E00020FEF737FC642156
:101980000120FEF715FC4FF47A70FEF7C6FB0FF24C
:101990009C6000F045FDE87D01280AD101A800F017
:1019A000F0FC696A401A40F6B931884201D3FEF76B
:1019B000DFFBFFF789FA01F06CFB801BB0F5167FA7
:1019C0000AD9287F012802D0E87E002804D101F03E
:1019D00060FB0646FEF796FE00F0FBFD01A800F056
:1019E000A6FF01A8009000230DF106024FF400416C
:1019F000184602F0C7FA8046B8F1000F06D0FFF78C
:101A0000D4FE0FF2D051404601F029FBFFF7AEFCA7
:101A1000FFF757FF01F03DFB001B332850D301F0C7
:101A200038FB04460221384600F089FDE97E8842F1
:101A300046D00520FEF771FB4FF0000810E064214E
:101A40000120FEF7B5FB4FF47A70FEF766FB0FF24C
:101A5000DC5000F0E5FC0220FEF75FFB08F1010816
:101A6000B8F10A0F2CD20221384600F068FD014679
:101A7000EA7E904224D0B8F1090FECD1E8760FF25B
:101A80005C5000F0CDFC0120A87600202877E87E8D
:101A90000128E0D1FFF701FC0128D0D1287E0128E0
:101AA00001D0FEF742FB0020E8750FF24C5000F029
:101AB000B7FC0FF2705000F0B3FC00202877CAE7A3
:101AC0004FF40041384600F03AFD01287FF463AF3F
:101AD0000520FEF722FB287F01287FF45CAF4FF43E
:101AE0000041384600F02BFD01287FF454AFFFF78A
:101AF000D4FB01287FF440AF287E012803D0FEF7F5
:101B000014FB0020E8750FF2405000F089FC0FF242
:101B1000145000F085FC002028773CE7000C0140C1
:101B2000FC01002000080140241E00200024014088
:101B300044020020E8F7FF1FBDD3CAD5B5BDCEB221
:101B4000CFE42D2DB6CCB0B4BCFC2CB5B1C7B0637E
:101B50006172645F7077723D25640D0A00000000B9
:101B6000BDD3CAD5B5BDCEB2CFE42D2DB3A4B0B48C
:101B7000BCFC2CB5B1C7B0636172645F7077723D15
:101B800025640D0A00000000BDD3CAD5B5BD28CE1E
:101B9000DED0A729CEB2CFE4B3A4B0B4BCFC0D0A0A
:101BA00000000000BDD3CAD5B5BDBDE2CBF82D2DD8
:101BB000B6CCB0B4BCFC2CB5B1C7B0636172645F85
:101BC0007077723D25640D0A00000000BDD3CAD5B0
:101BD000B5BDBDE2CBF82D2DB3A4B0B4BCFC2CB583
:101BE000B1C7B0636172645F7077723D25640D0A9E
:101BF00000000000BDD3CAD5B5BD28CEDED0A729D0
:101C0000BDE2CBF8B3A4B0B4BCFC2CB5B1C7B06393
:101C10006172645F7077723D25640D0A00000000F8
:101C2000BDD3CAD5B5BDCBF8B3B52D2DB6CCB0B4A8
:101C3000BCFC2CB5B1C7B0636172645F7077723D54
:101C400025640D0A00000000BDD3CAD5B5BDCBF890
:101C5000B3B52D2DB3A4B0B4BCFC2CB5B1C7B063E3
:101C60006172645F7077723D25640D0A00000000A8
:101C7000BDD3CAD5B5BD28CEDED0A729CBF8B3B524
:101C8000B3A4B0B4BCFC2CB5B1C7B0636172645FDF
:101C90007077723D25640D0A00000000BDD3CAD5DF
:101CA000B5BDD4B6B3CCC6F4B6AFC3FCC1EE0D0A15
:101CB000000000004F4ECFDFCEDEB5E72CD4B6B328
:101CC000CCC6F4B6AFCAA7B0DC0D0A00BDD3CAD5E6
:101CD000B5BDD4B6B3CCC6F4B6AFC3FCC1EEA3ACAD
:101CE000B5ABB2BBD6B4D0D00D0A0000BDD3CAD5B7
:101CF000B5BDD4B6B3CCCFA8BBF0C3FCC1EE0D0AC2
:101D000000000000BDD3CAD5B5BDD4B6B3CCCFA8B2
:101D1000BBF0C3FCC1EEA3ACB5ABB2BBD6B4D0D064
:101D20000D0A000041637469766520496D6D6F2E60
:101D30002E2E2CD4BFB3D7CAFDC1BF3D25640D0ADA
:101D4000000000000D0A0D0A416374697665496D53
:101D50006D6FB5C452582825642B31293A00000014
:101D60000D0A0D0A0D0A0D0A21212121212121210F
:101D700021212121212121212120D6F7D2A3BFD841
:101D8000C6F7B1E0BAC5B1E4B8FCCEAA3A256420E2
:101D90002121212121212121212121212121212133
:101DA000210D0A0D0A0D0A0D0A0000004163746935
:101DB000766520496D6D6F20B5C8B4FDD2A3BFD83C
:101DC000C6F7D3A6B4F0B3ACCAB1212121210D0AC4
:101DD00000000000B7C7B7A820D2A3BFD8C6F7201D
:101DE000BBF220D2A3BFD8C3FCC1EEA3ACB7B5BB36
:101DF000D80D0A0D0A000000D0A3D1E9D5FDC8B75F
:101E00000D0A0000554846CAFDBEDDB0FCCEAA3A18
:101E100000000000B3A4B0B4BDE2C3DCC7B03A0018
:101E200052656D6F74654B657956616C75653D25BE
:101E30003034580D0A000000BFAACABCD1A7CFB0E9
:101E40002E2E2E0D0A000000BDD3CAD5B5BDD2A3DB
:101E5000BFD8C6F7CAFDBEDD2825642B31293A005C
:101E6000BDE2C3DCBAF325642B313A00D0A3D1E93B
:101E7000B4EDCEF33D3D3D3D3078253032583D3D0B
:101E80003D3078253032583D3D3D3D3D3D0D0A0009
:101E900052464944D6D8B8B441203D253038580D73
:101EA0000A00000052464944D6D8B8B442203D2525
:101EB0003038580D0A00000052464944D6D8B8B40C
:101EC00043203D253038580D0A000000D1A7CFB07F
:101ED000B5BD52464944203D253038580D0A000012
:101EE000D1A7CFB0B5BD52666C6F713D2530385863
:101EF0000D0A0000D1A7CFB0B5BD52464944CAFD76
:101F0000C1BF3D25640D0A00D1A7CFB04944CAB175
:101F1000BCE4D2D1BAC4CDEA0D0A0000D1A7CFB03B
:101F2000B5BD52464944CAFDC1BF78787878787803
:101F30007878787878783D25640D0A00D1A7CFB0FD
:101F4000B5BD52464944CAFDC1BF64636363636360
:101F5000636363636363636363633D25640D0A00C6
:101F6000B1A3B4E6B3C9B9A62121212121212121A0
:101F70002120D2A3BFD8CAFDC1BF3D2564202121A5
:101F80002121212121212121212121210D0A0000AE
:101F9000D2C9CBC6C6F4B6AF2E2E2E0D0A00000055
:101FA000D0A3D7BCD6F7B5E7B3D820CFA8BBF0BA3B
:101FB000F320B5E7D1B94F4B0D0A0000BDF8C8EBCF
:101FC000D1A7CFB0D2A3BFD8C6F7C4A3CABD2E2E07
:101FD0002E0D0A0052665461736B000021212121ED
:101FE0002121212121216F6E5F7374617475733D0E
:101FF00025642C0D0A000000414141D2A3BFD8C680
:10200000F7D4DAB3B5C9CFA3ACD7AACEAA20B1BE54
:10201000B5D8C6F4B6AF20C4A3CABD202121212162
:102020000D0A00000D0A0D0A0D0A0000D2A3BFD848
:10203000C6F7B2BBD4DAB3B5C9CFA3ACCFA8BBF057
:102040004F4B0D0A00000000D2A3BFD8C6F7D4DA68
:10205000B3B5C9CFA3ACD7AACEAA20B1BEB5D8C656
:10206000F4B6AF20C4A3CABD20212121210D0A004E
:1020700010B40388DFF83C22904212D0DFF84C42C3
:10208000A0420ED0B0F1804F0BD0DFF82C42A0421E
:1020900007D0DFF82842A04203D0DFF82442A04254
:1020A00004D14FF68F7423404C882343DFF8144249
:1020B000A04208D0DFF81042A04204D04FF6FF44FF
:1020C0002340CC88234303808B8883850B8803853A
:1020D00090420FD0DFF8F42190420BD0DFF8F021CE
:1020E000904207D0DFF8EC21904203D0DFF8E821DE
:1020F000904201D1097A01860121818210BC70478A
:1021000030B4028C4FF6FE731A400284048C82882D
:10211000038B4FF68C752B400D882B434FF6FD75C6
:102120002C400D892C434D882C43DFF88851A84260
:102130000FD0DFF89851A8420BD0DFF89451A84295
:1021400007D0DFF89051A84203D0DFF88C51A842A5
:1021500010D14FF6F7752C404D892C434FF6FB7587
:102160002C408D882C434FF6FF452A408D892A4309
:10217000CD892A4382800383C9888186048430BC48
:10218000704770B4028C4FF6EF731A400284048CCF
:102190008288038B48F6FF452B400D8843EA0523D0
:1021A0004FF6DF752C400D894E88354344EA0514FF
:1021B000DFF80051A84203D0DFF81051A84213D134
:1021C0004FF67F752C404D8944EA05144FF6BF75D4
:1021D0002C408D8844EA05144FF2FF352A408D8942
:1021E000CE89354342EA850282800383C98801870C
:1021F000048470BC70470029018803D041F00101BC
:10220000018070474FF6FE7211400180704700292F
:10221000B0F8441004D041F40041A0F844107047D5
:102220004904490CA0F844107047002A828902D062
:1022300011438181704722EA0101818170470029A1
:10224000018803D041F08001018070474FF67F7212
:10225000114001807047028B4FF6F7731A4011430B
:1022600001837047028B4FF2FF731A4042EA01214B
:102270000183704710B4038C01248C40A343038472
:10228000038C02FA01F11943018410BC7047818468
:102290007047808C70470022038A0B408089084079
:1022A000002B02D0002800D0012210467047C943FD
:1022B00001827047002C01400004004000080040EB
:1022C000000C0040001000400014004000340140A9
:1022D0000040014000440140004801402DE9F04128
:1022E00005460E4614463F480078002803D047F2C2
:1022F0007520208043E03C480078002803D046F653
:10230000635020803BE0300005D0022803D0042831
:102310000BD0082805D1002D07D147F27E20208060
:102320002DE045F62560208029E002F01FF90746E0
:1023300002F046F9DFF8B4800120D8F8001081F8E7
:102340003600234632462946D8F8000002F0B9F993
:102350002088002806D002F042F93846BDE8F04156
:1023600002F008B9D8F8000000F051FD02F037F98A
:10237000384602F0FFF800F032FA00202080BDE875
:10238000F08170B5044602F0F1F8054602F018F944
:102390001748066802F023F9284602F0EBF80020FF
:1023A0002080304670BD80B502F091FB6A46002166
:1023B000104801F065FF10481049097801EB41020F
:1023C00000EB820000F073FD0D480168491E0160BA
:1023D00007D10C49096801606A4600210A4801F0EA
:1023E0004FFF01BD40250020442500202825002066
:1023F0000C25002098210020341D002042250020BB
:1024000024250020202500206822002080B502F02D
:10241000E3FB6A460FF27C011C4802F03FFD01BD60
:102420000EB470B583B00646194C04F5FA7501A8D0
:10243000009000231A461146284602F069FD07ABBA
:1024400032464FF4FA71204602F018FF0119891E36
:102450004A780A2A0ED109780D290BD0B0F5FA7FF7
:1024600001D140F2F3100D21021902F8011C0A21DA
:102470000155401C0146204602F0A7FC01AA00219C
:10248000284602F03AFE77BC5DF810FBDC0D002018
:10249000E80B00207072696E74206D7574657800A9
:1024A000F0B40023CC7804F00F02E40601D58C7858
:1024B00022430C88E4B2002C1CD0046803E0482DB1
:1024C00000D106615B1C082B13D2012505FA03F627
:1024D00035460F882F40AF42F4D19D000F27AF4003
:1024E000BC4302FA05F52C43CD78282DE7D146618F
:1024F000E8E704600B88FF2B1FDD4468002319E028
:10250000012503F1080605FA06F635460F882F4027
:10251000AF420ED19D000F27AF40BC4302FA05F534
:102520002C43CD78282D00D14661CD78482D00D19F
:1025300006615B1C082BE3D34460F0BC70470022AB
:102540008068084200D00122104670470161704740
:102550004161704770B4194A002801D5946900E0C0
:102560001468C0F3034583B200F44016B6F5401F6B
:1025700006D124F07064156825F0706515600FE0D1
:10258000C60206D5032606FA05F5AC4344F070648E
:1025900006E0450D2D0103FA05F5AC4344F07064E7
:1025A000002904D0410D090103FA01F10C43002870
:1025B00001D5946100E0146070BC704704000140D4
:1025C0000949086070470949086070470849086070
:1025D00070474AF6AA200449086070474CF6CC4080
:1025E000014908607047000000300040043000409E
:1025F00008300040002201F0FDBA8268521C82605F
:10260000426832B10268531C036011704168491E70
:102610004160704710B5044602F0C6F90020DFF8AB
:10262000F8180870DFF8F4180870DFF8F41808706C
:10263000DFF8F0180860DFF8F0180860DFF8EC1831
:102640000860DFF8EC180870DFF8E80800680A2175
:10265000B0FBF1F0DFF8E0180860DFF8E008006890
:1026600000280BD0DFF8D8180968002906D000220E
:10267000002802E0401E41F8042BFBD10020DFF8C7
:10268000C4180860DFF8C0180860DFF8C0180860D8
:10269000DFF8BC180860DFF8BC180860DFF8B8186D
:1026A0000860DFF8B818086002F006FE00F034FB9E
:1026B000204601F022FE208800283BD1204600F071
:1026C000BEF92088002835D1204601F0BEFF2088C1
:1026D00000282FD1204602F02BFE2088002829D187
:1026E000204602F031FE2088002823D1204602F047
:1026F00053FE208800281DD1204602F0A7FD208827
:10270000002817D1204602F0FDFE2088002811D1B4
:10271000204602F003FF208800280BD1204602F05B
:1027200009FF2088002805D103F05CF8BDE81040BF
:1027300003F059B810BD10B5DFF8E00700780128A4
:102740004CD101F013FF0446DFF8CC0701780029D3
:1027500004D12046BDE8104001F00CBF491E0170B5
:10276000C9B2002904D02046BDE8104001F002BFE4
:10277000DFF8AC070078002804D02046BDE8104000
:1027800001F0F8BE02F0A1FDDFF8D4170870DFF801
:10279000D41700EB400290004058DFF8CC170860D7
:1027A000DFF8C8170968884204D12046BDE8104008
:1027B00001F0E0BED0F88C10491CC0F88C10DFF896
:1027C000B0070168491C01604FF08050DFF8A41782
:1027D00008602046BDE8104001F0CCBE10BDDFF817
:1027E00038070078002800D0704710B5DFF83007B0
:1027F000007800282ED101F0B9FE044602F065FDF4
:10280000DFF85C170870DFF85C1700EB40029000FF
:102810004058DFF854170860DFF8501709688842FD
:1028200004D12046BDE8104001F0A4BED0F88C10C1
:10283000491CC0F88C10DFF838070168491C01609A
:102840004FF08050DFF82C1708602046BDE810409C
:1028500001F090BE10BD70B50446DFF8BC060078EC
:10286000002803D046F66250208070BDDFF8AC0629
:102870000078012803D045F68960208070BDDFF81C
:10288000A0562878FA2803DB45F20920208070BD85
:1028900001F06CFE064601F093FE2878401C28707B
:1028A00000F0E2FA01F09BFE304601F063FE0020EA
:1028B000208070BD70B50446DFF85C060078002803
:1028C00003D046F66550208070BDDFF850060078D2
:1028D000012803D045F68960208070BDDFF840569E
:1028E0002878002803D146F66450208070BD01F09E
:1028F0003DFE064601F064FE2878401E2870C0B2F6
:10290000002808D001F06BFE304601F033FE46F699
:102910006350208070BD00F0B2FA01F060FE3046D6
:1029200001F028FEFFF75BFF0020208070BD70B52E
:102930000446DFF8E4050078002803D048F2D140CF
:10294000208070BDDFF8D8050078002803D046F657
:102950006350208070BDDFF8D8050078012803D0CF
:1029600046F67B10208070BD01F000FE054601F0A8
:1029700027FEDFF8F005DFF80016097801EB4102C9
:1029800000EB82063089022808DA01F028FE28468A
:1029900001F0F0FD46F67A10208070BD304600F060
:1029A00017FA3068416D002904D1DFF88C150968E9
:1029B000816500E0816501F012FE284601F0DAFD34
:1029C000FFF70DFF0020208070BD38B50446DFF80A
:1029D0004C55287800281BD102F077FCDFF88015D1
:1029E0000870DFF894150870DFF8781500EB4002E6
:1029F00090004058DFF870150860DFF87015086027
:102A00000120287002F0F0FE43F69920208031BDAD
:102A100045F68A60208031BD10B501F0A7FD04465F
:102A200001F0CEFDDFF854050168491C016001F09A
:102A3000D6FD204601F09EFD01F0B0FFEDE700B5A8
:102A400089B00021DFF83425116008900320079039
:102A50000846069005900490DFF82405006803906E
:102A6000DFF8200500680290DFF81C05006801907F
:102A7000132000900B46DFF814250FF26C51DFF89D
:102A8000100501F055F909B000BD70B506460C46B9
:102A90001946DFF8D854286880F8342000202A68C6
:102AA00082F83500286800F075FA002C0BD0F4602D
:102AB00001223146286800F010F8314604F1080080
:102AC00000F069F804E000202968C88729680863D5
:102AD00029682046BDE8704013E010B4C287016346
:102AE00000231C4608E04C600C600C614C610C83B8
:102AF000CC61886020315B1C9BB29342F3D310BC45
:102B00007047002807D04268C1F8C82081688968EA
:102B1000096AC161704791F83400022802D0072881
:102B200005D009E00FF2D440C1F8C80070470FF299
:102B3000D440C1F8C8007047A4A0C1F8C8007047CD
:102B4000A2A2C1F8C8208168002903D08968096A57
:102B5000C1617047C261704770B53030C17104689F
:102B6000C5890FE0E06800F108063089022807D324
:102B70002146304600F055F82146304600F00BF86B
:102B800020346D1EADB2002DECD170BD002101606E
:102B900041600181704710B48A6892F83720038938
:102BA000002B07D10122028100224A600A600160E5
:102BB000416021E05B1C0381036800E05B68002B3F
:102BC00004D09C6894F83740A242F7D2002B06D17B
:102BD00000224A6042680A60516041600CE01A6855
:102BE000002A05D1196000220A604B60016003E0F1
:102BF0000A604B605160196010BC704770B50446A4
:102C0000256BE68F06E02946E868083000F009F8F1
:102C10002035761EB6B2002EF5D10020E087206365
:102C200070BD0289012A03D10022026042600FE0D8
:102C30004A680B68002B03D100231360026007E091
:102C4000002A03D100225A60436001E05A601360F9
:102C50000289521E0281002048600860704770B5EA
:102C600082B005460E4606F134040698A178891E06
:102C7000012903D9091F01291DD973BD2178032911
:102C800005D100903146284600F033F802E0A262F8
:102C9000A385E060002D06D03046FFF7AFFF314638
:102CA0002846FFF74DFF304600F090F90020A07055
:102CB0006070207073BD2178032905D100903146E2
:102CC000284600F016F802E0A262A385E0603046D4
:102CD00001F06FFD002D06D03046FFF78FFF314623
:102CE0002846FFF72DFF0420A070002060702070A0
:102CF00073BD30B40C6BC98F01E02034491E89B21A
:102D0000002907D0E568A842F7D1206162612383DA
:102D10000298E06130BC7047002009E0914900EB67
:102D2000400201EB820100220A810A604A60401CD5
:102D30001428F3D3704710B5044694F8370002F016
:102D4000D2FA94F837008C4909788842204602D19B
:102D5000BDE810401DE0BDE81040824990F83720E2
:102D600002EB420301EB83010A89002A07D1012209
:102D70000A810022C2600261086048607047521CEC
:102D80000A810A68C260002202610A681061086054
:102D90007047744990F8372002EB420301EB83013E
:102DA0000A89002A07D101220A810022C260026139
:102DB000086048607047521C0A810022C2604A685D
:102DC0000261D060486070470000000020000000F1
:102DD0000189002900D1704710B4022901D014D311
:102DE00009E0016842680A610023CB601361D16089
:102DF0000260416009E001684268CB6800241C6100
:102E0000CC600A61D1600360416010BC704710B5AE
:102E1000544990F8372002EB420301EB830100F1A3
:102E20000C0462682368002A11D1002B08D100220B
:102E30000A810A604A6090F8370002F065FA0FE0F4
:102E40000889401E0881002018610B6008E008898D
:102E5000401E0881D360002B01D14A6000E01A6156
:102E600000206060206010BD2D480078012800D04F
:102E7000704780B502F0FAFC2A49086001BD284875
:102E80000078002800D0704780B502F0EFFC25499B
:102E90000968401A24490A68824200D202460A6040
:102EA00022490A68824200D202460A6001BD38B552
:102EB00004461F48007801282CD101F057FB054635
:102EC00001F07EFB206800281DD0314988421AD0CD
:102ED000816D002901D0491E8165806D002812D1C5
:102EE000208902280FDB0E48007800280BD12046ED
:102EF000FFF76EFF2068416D002903D10E49096874
:102F0000816500E0816501F06AFB2846BDE832403A
:102F100001F030BB31BD00004025002041250020DC
:102F200044250020F0240020F4240020F824002070
:102F300045250020989A0008FC240020889A000863
:102F4000849A0008C0240020C4240020C824002043
:102F5000CC240020D0240020D4240020D824002019
:102F600043250020341D00202C250020282500208A
:102F70000425002004ED00E042250020DC24002090
:102F8000809A00087C9A0008789A0008192A00089C
:102F9000C820002010B582B0044600290FD06B462F
:102FA000022201F08EFBBDF80000002803D10320AF
:102FB00084F8360006E0022084F8360002E00220A1
:102FC00084F836002046FFF722FF13BD10B50446F3
:102FD00001F0EFFB94F83600400703D42046BDE82B
:102FE0001040A8E610BD000075432F4F532D4949EE
:102FF000492049646C65205461736B005461736BA4
:10300000205100005461736B2053656D0000000077
:1030100070B510F0070F04D000F00701C1F10801EE
:10302000401800F1080401F0A1FA054601F0C8FAC1
:10303000204603F0B1FA06000AD00022214600F033
:103040003FFB01F0CCFA284601F094FA304670BDFF
:1030500001F0C5FA284601F08DFA002070BD38B5A0
:10306000044601F083FA054601F0AAFA002C09D0C3
:10307000204603F0ECFB01F0B2FA2846BDE83240EE
:1030800001F078BAFEE780B56A460021FFF726F91D
:1030900001BD80B56846FFF774F902BD80B503F045
:1030A00063FE012003F079FE102003F043FF0220AD
:1030B00003F038FF002003F07FFE002003F08AFEBB
:1030C000002003F080FE212003F0F5FE0028FAD056
:1030D000002003F065FE03F06AFE0028FBD1012109
:1030E000DFF8C80203F0D9FE012144F20D00BDE86B
:1030F000044003F0C7BE80B50FF2CC2000680090FA
:103100004FF4E06003F0A8FF25208DF800000020B8
:103110008DF8020001208DF80300684603F0A1FF3E
:1031200026208DF8000001208DF802008DF80300A4
:10313000684603F096FF27208DF8000002208DF8E6
:10314000020001208DF80300684603F08AFF122078
:103150008DF8000000208DF801008DF8020001209C
:103160008DF80300684603F07CFF03208DF8000013
:1031700001208DF8010000208DF8020001208DF85B
:103180000300684603F06DFF1C208DF8000000204E
:103190008DF8010001208DF802008DF803006846CB
:1031A00003F05FFF01BD10B588B02020ADF804002A
:1031B0000020ADF80000ADF806002020ADF80200B8
:1031C00000208DF808007A4C69462046FEF750FF33
:1031D0006020ADF80C000120ADF80E000020ADF825
:1031E00010001020ADF812000220ADF814000820E5
:1031F000ADF816000020069003A92046FEF780FFD8
:1032000008212046FFF727F803A92046FEF7B9FF5B
:1032100008212046FFF726F801212046FFF70FF886
:1032200001212046FEF7F3FF00212046FEF7E3FFD1
:103230004FF6FF70ADF804000F20ADF8000000203D
:10324000ADF80600ADF802008DF8080069464FF0B1
:103250008040FEF70DFF01214FF08040FFF727F877
:10326000012211464FF08040FEF7DFFF08B010BD8D
:1032700000B58BB009A808900320079000200690A5
:103280001420059003200490402003900620029013
:1032900049480190082000900023484A0FF22C1161
:1032A000474800F045FD0BB000BD0EB470B587B0C7
:1032B000044602A80BA9102200F0C6FC0FF2141558
:1032C00029461020FFF7A4FE06001DD0102202A9F7
:1032D00000F0AAFC01A800900023102231462046ED
:1032E00000F012FFBDF80400002801D1002011E019
:1032F00001460FF2F800FFF793F829463046FFF732
:10330000AEFE4FF0FF3005E00FF20010FFF788F837
:103310006FF0010007B070BC5DF810FB00B585B020
:1033200001A81021FFF766F900208DF804000120A4
:103330008DF805000320ADF8060001A883B06946AA
:103340000CC80CC10CC80CC10EBC1E48FFF7ADFF69
:1033500005B000BD10B582B0FFF7A0FEFEF7DAFAA7
:10336000FFF7C9FEFDF756F8FFF71DFFFFF74EF810
:1033700003F018FFFFF77CFFFFF7D0FF0D4C202173
:103380002046FFF7E3F86A460021C820FEF7A6FFB3
:1033900020212046FFF7DCF86A46002141F2883000
:1033A000FEF79CFF03F034FFF6E70000050000186D
:1033B00000080040000C0140341C002039190008AE
:1033C000F81F0020281F0020000000007266205413
:1033D00061736B00444D5F706F73745F6F6E655FF8
:1033E0007461736B5F6D736700000000706F7374BE
:1033F000207461736B2071206661696C202D2564D7
:103400002D2C667265652E2E2E0D0A006D616C6C7A
:103410006F63207461736B2071206661696C0D0AA3
:103420000000000030B4002213469D4C03E01D5CF8
:103430006A40125D5B1CDBB28B42F8D3104630BC95
:103440007047F8B504460D461646002707E055F8C4
:10345000271004EB870003F0A4FD7F1CFFB2B742E6
:10346000F5DBF1BD10B4002305E050F8234041F82E
:1034700023405B1CDBB29342F7DB10BC704770B596
:103480008AB0044604208DF8000003F05DFD35206D
:1034900003F0B1FD834D284603F066FD8DF8000072
:1034A0009DF80000042803D003F057FD00202CE015
:1034B0001D21601CFFF7B6FF207008222146284618
:1034C000FFF7BFFF784E082221463046FFF7B9FFCD
:1034D00003F043FD082201A92846FFF7C3FF1E227F
:1034E000214601A800F0DCFB002801D000200CE000
:1034F000082201A93046FFF7B5FF1E22214601A888
:1035000000F0CEFB401E8041C00F0AB070BDF0B588
:1035100089B0044604208DF8000003F015FD352025
:1035200003F069FD614D2E4600E03E46604886424C
:103530001FD3284603F018FD8DF800009DF8000009
:10354000042804D15B4803F00FFD8DF800009DF8BE
:103550000000042804D1584803F006FD8DF800004F
:103560009DF80000042803D003F0F7FC002039E0A8
:103570002E4606F12007306800F47F00B0F56C0F8E
:10358000D3D004F12005EC20A870132104F1210010
:10359000FFF748FF2870052229463046FFF751FF04
:1035A000052229463846FFF74CFF03F0D6FC0522DA
:1035B00001A93046FFF756FF1422294601A800F062
:1035C0006FFB002801D000200CE0052201A938463D
:1035D000FFF748FF1422294601A800F061FB401EB6
:1035E0008041C00F09B0F0BD10B504460822214645
:1035F0002C48FFF737FF1D21601CFFF713FF2178D0
:10360000814212D0082221462748FFF72BFF1D21B7
:10361000601CFFF707FF2178814206D01D220021A0
:10362000204603F095FE002010BD012010BD38B5E6
:1036300004461F4D203D286800F47F00B0F56C0F54
:1036400020D1052204F120012846FFF70BFF1321AA
:1036500004F12100FFF7E6FE94F8201081421CD00F
:10366000052204F1200105F12000FFF7FBFE1321E4
:1036700004F12100FFF7D6FE94F8201081420CD00F
:10368000002032BD0D488542D4D21422002104F11D
:10369000200003F05DFE002032BD012032BD00009D
:1036A0000000002000F0000820F0000800F40008EE
:1036B0000000010800F8000800FC000801F4000800
:1036C00062F30F2262F31F42401810F0030308D088
:1036D000C91A1FD3DB0748BF00F8012D28BF20F807
:1036E000022D130030B414461546103928BF20E9C6
:1036F0003C00FAD8490728BF20E90C0048BF40F831
:10370000042D890028BF20F8022D48BF00F8012DA4
:1037100030BC7047C91818BF00F8012DCB0728BF6F
:1037200000F8012D7047000081B0C1788DF80010BD
:1037300081788DF8011041788DF8021000788DF8AD
:103740000300009801B0704701B49DF80000C870F4
:103750009DF8010088709DF8020048709DF80300F4
:10376000087001B0704738B504460D462846FFF78B
:10377000DBFF2946001BBDE83440E5E770B586B0A5
:10378000044602A93048FFF7DFFF002004E0015D96
:103790006A4682181173401C0828F8DB0FF2B00546
:1037A0009DF80A00400800F00C004019FFF7BCFF2C
:1037B000064602A8FFF7B8FF801901A9FFF7C4FF6A
:1037C00003A8FFF7B1FF010181EA50110E1801A80B
:1037D000FFF7AAFF704004A9FFF7C5FF02A8FFF793
:1037E000A3FF02A9194A1018FFF7AEFF9DF80B00BE
:1037F00000F0030005EB8000FFF796FF054602A8E6
:10380000FFF792FF401901A9FFF79EFF04A8FFF7F9
:103810008BFF010181EA50110D1801A8FFF784FF09
:10382000684003A9FFF79FFF02A8FFF77DFF00286C
:10383000B4D1002004E069464118097B0155401CC1
:103840000828F8DB06B070BD2037EFC64786C86190
:103850000B46502D5E2537182BF93A19622C1206AB
:1038600010B46148817802780FF2603302F00F04DF
:1038700014EB0114E45C1205120E12EB0111C95C89
:1038800044EA0111017010BC7047F0B400200FF23F
:103890005C110A46544B9C780FF2283505EBC404A2
:1038A00008251E781778374202D027787F5C384386
:1038B000641C521C6D1EF5D11870F0BC70472DE9C8
:1038C000F84F0026002048494A6813464D780FF209
:1038D000241404EBC504A0460FF2781707EBC50AC1
:1038E000D3464FF0070C0FF2F42E0FF2D8158F7855
:1038F0004FEAC70900961E7806F00F0718F8016B0B
:103900004E4416F80E6007EB0616765D009F7E406B
:10391000F6B2009013F8017B1BF8010B484410F835
:103920000E00000100EB2710405D009F7840C0B200
:10393000BCF1010CDBD10B780FF2781703F00F0B01
:103940008BEA0606E4794C4414F80E40E45D06EB7D
:103950000414645D80EA13109AF807304B4413F89E
:103960000E30DB5D00EB0310405D44EA0010087090
:10397000D071BDE8F18F7CB41B4881780FF24422EE
:1039800002EBC1014268082300AC11F8015B12F898
:10399000016B2E555B1EF8D1002100AA436812F876
:1039A000014BCC54491C0829F8DB73BC704710B597
:1039B0000D4C0021A17060600B2060706068C079C0
:1039C0002070FFF74DFFFFF760FFFFF749FFFFF79C
:1039D00076FFFFF7D0FF6078401E6070C0B2FF280E
:1039E000ECD110BD00000000A82400200102040852
:1039F00010204080040506070001020305040706A5
:103A0000010003020607040502030001070605047E
:103A1000030201000001020304050607010003027E
:103A2000050407060203000106070405030201005E
:103A3000070605040504070601000302040506073E
:103A4000000102030706050403020100060704053E
:103A5000020300010100030205040706000102033E
:103A6000040506070302010007060504020300011E
:103A700006070405050407060100030204050607FE
:103A800000010203070605040302010006070405FE
:103A900002030001030201000706050402030001FE
:103AA00006070405010003020504070600010203DE
:103AB000040506070001090E0D0B07060F020C0591
:103AC0000A040308000000000000000000000000DD
:103AD00000000000000102030405060708090A0BA4
:103AE0000C0D0E0F00020406080A0C0E0301070558
:103AF0000B090F0D000306050C0F0A090B080D0E2C
:103B0000070401020004080C03070B0F06020E0A4B
:103B100005010D0900050A0F07020D080E0B04012F
:103B2000090C030600060C0A0B0D07010503090F1B
:103B30000E08020400070E090F0801060D0A03040F
:103B400002050C0B0008030B060E050D0C040F07F5
:103B50000A02090100090108020B030A040D050C01
:103B6000060F070E000A070D0E0409030F050802D1
:103B7000010B060C000B050E0A010F04070C0209CD
:103B80000D060803000C0B0705090E020A06010DBD
:103B90000F030408000D0904010C0805020F0B06B1
:103BA000030E0A07000E0F010D03020C0907060899
:103BB000040A0B05000F0D020906040B010E0C038D
:103BC0000807050A04050001060207030E01000D9F
:103BD000030C020B090A0F04080607050307050575
:103BE0000609080F0307070C06050C0E62F30F22E7
:103BF00062F31F4200B500BF130096469446103989
:103C000028BFA0E80C50FAD85FEA417C28BF0CC05E
:103C100048BF40F8042BC90728BF20F8022B48BF33
:103C200000F8012B00BD000062B38B0708D0521EC4
:103C300011F8013B00F8013B00F024808B07F6D11E
:103C4000830740F0208000BF103A07D330B4B1E8BA
:103C50003810103AA0E83810F9D230BC530724BF0E
:103C6000B1E80810A0E8081044BF51F8043B40F840
:103C7000043BD20724BF31F8022B20F8022B44BFAB
:103C80000B7803707047083A07D3B1E80810083A78
:103C900040F8043B40F804CBF7D25307E4E70000B8
:103CA0000300002013F0030F09D0521E22BF13F8A7
:103CB000010B11F801CBB0EB0C00F3D07047121FD1
:103CC00022BF53F8040B51F804CB6045F7D0121D06
:103CD0000AD200BA9CFA8CFCB0EB0C0038BF6FF033
:103CE000000088BF01207047521E22BF13F8010B4D
:103CF00011F801CBB0EB0C00F6D0521C08BF1046F7
:103D0000704700000029816803D041F00101816003
:103D100070474908490081607047C06C80B27047A5
:103D200000220068084200D00122104670470000BF
:103D30002DE9F24F82B0064617469846149DDFF8EB
:103D400074060078002803D047F24A102880A9E0C2
:103D5000002E03D147F2AD102880A3E0380003D134
:103D600047F24F1028809DE0DDF83490B9F1000F44
:103D700003D146F62C60288094E0DDF83CA0DFF803
:103D8000F8060068824503D246F62D60288089E057
:103D9000DDF838B0D34503D346F62E60288081E0A5
:103DA0000C9C2046142805D2132807D1DFF8880779
:103DB000864203D046F27320288073E0304600F03C
:103DC000A5FA00202880139D05F00300032808D1E0
:103DD000484600210A4602E040F8042B491C5145A0
:103DE000FAD309EB8B0B28460190CDF800A05B4677
:103DF0004A464146384600F0F3FDB762C6F82C80CB
:103E00000299316286F837403060C6F808B006F192
:103E100038011198C861002804D1DFF82007006834
:103E2000086200E0086212987060C6F82490C1F839
:103E300000A08D80002002E00020486401200028BE
:103E4000FAD0109906F1640001F0DEFA304600F075
:103E5000B5FD00F08BFB044600F0B2FB96F837008E
:103E600001F041FA3046FEF794FF304600F015FAB3
:103E7000DFF8CC060188491C0180DFF8C80600780D
:103E8000012806D000F0ABFB2046BDE8FE4F00F055
:103E900071BB00F0A4FB204600F06CFBBDE8F74FBF
:103EA000FEF79DBCBDE8F78FF8B504460D46DFF878
:103EB00004050078002803D047F24E102880F1BD99
:103EC000DFF87406844203D147F24C102880F1BD1C
:103ED000002C0CD100F04AFB064600F071FBDFF825
:103EE0009405046800F07BFB304600F043FB00F0D3
:103EF0003DFB064600F064FB04F13407B878072860
:103F000037D8DFE800F0042529290725292920468C
:103F1000FEF77DFF04F1640001F05CFA204600F03A
:103F200053FD204600F0CAF9DFF814060188491E47
:103F30000180204600F0EAF9FF20B87000F04FFB46
:103F4000304600F017FBFEF74AFC00202880F1BD48
:103F5000204600F02EFCDDE7204600F02AFC3878F1
:103F6000401E02D0801E0328D4D82046FEF746FE0D
:103F7000D0E700F034FB304600F0FCFA46F62A6049
:103F80002880F1BD2DE9F84F82468B469046994630
:103F90000A9CDFF820040078002804D046F2AE1016
:103FA00020800020AEE0B8F1000F04D146F2D52009
:103FB00020800020A6E05846002802D0B0F5004F2F
:103FC00029D1B9F1000F02D00020C9F8000000F09B
:103FD000CDFA054600F0F4FADFF8986423464A4625
:103FE00041463068643001F016FA07462088002800
:103FF00016D1B9F1000F00F07F8001F037FCD9F83D
:104000000010401A316848673068416F826F8A42F9
:1040100072D2816770E045F625602080002071E053
:104020005FEA0B4009D546F2B010208000F0D7FAC5
:10403000284600F09FFA002064E0DFF814050078BD
:10404000002809D000F0CBFA284600F093FA46F693
:1040500063502080002055E053460222002108468C
:10406000FEF713FD00F0BBFA284600F083FAFEF7D6
:10407000B6FB00F07BFA054600F0A2FA306890F833
:104080003510002902D001291BD027E05C300768D9
:104090008088A8F80000B9F1000F0FD03068006CDC
:1040A000C9F8000001F0E2FB31680A6C801A486729
:1040B0003068416F826F8A4200D281670020208081
:1040C0001AE000273846A8F80000B9F1000F01D027
:1040D000C9F8000046F2A91020800DE000273846FC
:1040E000A8F80000B9F1000F03D03068006CC9F8DF
:1040F000000047F2D920208000F071FA284600F035
:1041000039FA3846BDE8F28FF0B583B004460D4663
:1041100016461F4601F0AAFB0899019100903B4604
:1041200032462946204600F047F9F7BD2DE9F8430D
:104130008046894617461C46DFF87802007800283A
:1041400004D046F2AE102080002097E0002F01D06E
:104150000020386000F00AFA054600F031FADFF876
:1041600014633068416C00291FD0491E41643068D7
:10417000D0F84480002F01D0006C386001F076FB4D
:10418000316840310A68801A88663068A830016852
:1041900042688A4200D2416000F021FA284600F0CD
:1041A000E9F900202080404668E05FEA094009D52F
:1041B00000F015FA284600F0DDF946F2B010208034
:1041C00000205BE0DFF888030078002809D000F0C9
:1041D00006FA284600F0CEF946F66350208000200B
:1041E0004CE04346072200210846FEF74EFC00F053
:1041F000F6F9284600F0BEF9FEF7F1FA00F0B6F93C
:10420000054600F0DDF9306890F83510002904D03B
:10421000012917D003291DD024E0002F0FD0006CF6
:10422000386001F023FB316840310A68801A8866E3
:104230003068A830016842688A4200D2416000209C
:10424000208012E0002F01D0006C386046F2A910E7
:1042500020800AE0002F01D00020386047F2D920EA
:10426000208002E046F62B6020803068D0F8448041
:1042700000F0B5F9284600F07DF94046BDE8F2832C
:1042800070B504460D46164601F0F0FA3346024674
:1042900029462046BDE87040F0E000F1C001002250
:1042A0000A60AC4A1368002B02D100234B6003E084
:1042B0004B601168C1F8C00010607047C0300168E1
:1042C0004268002909D1A3490A60002A02D00021CE
:1042D000C2F8C010002141607047002A05D10022B9
:1042E000C1F8C420114601607047C1F8C420C2F86B
:1042F000C01000214160016070470021954A1160A3
:104300008F4A1180944A11600180704738B5044685
:1043100000202060A0606060E06020616061A061BA
:10432000E0610FF23820206200206062A062E0624B
:10433000206304F134056881E860A862A88501461D
:1043400004F1640001F060F8002028646864E86407
:1043500088342080286502E00020A864012000281D
:10436000FAD000202861206260626860A070E0627C
:10437000A06228814FF0004068610020A861E861D8
:1043800028626862E0706060A06001F06FFAE0602F
:1043900000200146C4E9040120636063287068704E
:1043A000A8701420E8700846A063E06366A020644B
:1043B00031BD0000402500202DE9F04383B0804648
:1043C0000C4615461E4600F0D1F8074600F0F8F8F6
:1043D000B8F1000F02D15D48D0F80080DDF82C90D4
:1043E0000020A9F8000008F134010A988A78072A09
:1043F0002BD8DFE802F0191904041919040409780C
:10440000022911D100902B46224641460020FEF79A
:1044100026FC00F0E4F8384600F0ACF830041DD477
:10442000BDE8F743FEF7DBB9CDF8049000903346C2
:104430002A46214608F1640001F01DF800F0CFF88B
:104440003846BDE8FE4300F095B800F0C8F838469D
:1044500000F090F846F62A60A9F80000BDE8F7835E
:1044600080B53A48006800F0B5FA69460020FFF7C9
:104470001BFD01BD28250020949A00082DE9F84372
:1044800081460C4616461F4600F070F8054600F0BF
:1044900097F8B9F1000F02D12C48D0F8009009F13B
:1044A0003408C8F80C600020388098F8020007280B
:1044B00036D8DFE800F00404131304041313D8F80B
:1044C000100010F1010F20D100F089F8284600F00B
:1044D00051F846F6C550388000202BE098F80000CF
:1044E000072812D1009600231A4649461046FEF7C7
:1044F000B6FBD8F8106000F072F8284600F03AF8E1
:10450000200416D4FEF76BF913E0D8F81000461C0F
:10451000C8F8106000F063F8284600F02BF808E0B7
:1045200000F05DF8284600F025F846F62A6038804D
:1045300000263046BDE8F283C8200020FC2400207D
:104540003E250020412500202000000028250020D5
:104550004425002008250020042500203F546173D5
:104560006B00000072B6704762B67047EFF31080C0
:1045700072B6704780F310887047B0FA80F07047C9
:1045800090FAA0F0704730BF704720BF704700001E
:1045900010B500F00AF80446FFF7E8FF0021204AB2
:1045A0001161FFF7E7FF204610BD10B5FFF7DEFFF2
:1045B0001B490C69FFF7DEFF2046BDE8104026E0EE
:1045C00010B5174C2088401C20806088002802D13C
:1045D00001F04CF960606088401C608010BD10B52F
:1045E0000F4C6088401E608080B200280ED101F020
:1045F0003DF9A0606168401A2169814200D20146FC
:1046000021616169814200D20146616110BD0449A6
:10461000C968814201D2401A7047002070470000EB
:104620007824002000B583B06B4601AA002108461B
:10463000FFF77CFDBDF800000028F5D1C6480078E2
:104640000128F1D100F0D2F8EEE710B58AB00446A7
:104650000020C2490860C249086000F022F8C14841
:104660000078132803D346F27320208017E00894C3
:10467000032107910021069105910491BA49096827
:104680000391BA4909680291B949096801910090FA
:104690000023B84A0FF2F021B748FFF749FB0AB0F0
:1046A00010BD0020024606E0B44901EBC0010A60DB
:1046B0008A80CA80401CB249098880B28842F3D3FC
:1046C000704770B4042A1ED1A44A12688A1A521E76
:1046D000AC4CA24232D2C164511C0165C16CA84AE3
:1046E0001288B1FBF2F402FB1411A44A89B202EB66
:1046F000C1018A88002A29D10022426182610860B2
:1047000001228A804AE0002918D0944C2568082AA2
:1047100010D1826C8A18561B761E8E4201D2C2645A
:1047200001E04919C164C16C2268891A0165C16C34
:104730008164D3E74A19C2640165CFE70021C164EF
:104740000165C16147F27E20188030E00A6804E00C
:1047500084614261606190610022002A1BD07F4C1D
:10476000D56C24682C1B1465056DAC420AD25469C3
:10477000002C01D02246F0E70024446182615061A0
:104780002246EAE79469002CE2D100248461426168
:1047900090610860E0E78A88521C8A80CA888C8809
:1047A000A24200D22246CA80C1610020188070BC9B
:1047B0007047C169002918D00022026542690B6860
:1047C000834205D113000B6007D000229A6104E0F8
:1047D00083695A61002A00D093610022426182619C
:1047E000C261C2648888401E888070472DE9F04706
:1047F000FFF7BCFE0446FFF7E3FE01F037F805467D
:10480000564E3068401C30605D490988B0FBF1F2BB
:1048100001FB1200594980B251F83080002701E0B5
:104820000127C846002F40F08780B8F1000F00F044
:104830008180D8F8149008F1340A9AF8020001280F
:1048400006D0032818D005283CD007284ED0E8E72A
:10485000DAF818003168401ACAF81C003068DAF833
:104860001810884206D100208AF802004046FEF760
:10487000ADFBD6E70127D4E7DAF818003168401A13
:10488000CAF81C003068DAF81810884218D10020E5
:10489000CAF82800AAF82C0000F0E8FFCAF80C00BB
:1048A0004046FEF7ABF94046FEF790FB00208AF841
:1048B000020003208AF8010000208AF80000B0E717
:1048C0000127AEE7DAF818003168401ACAF81C0070
:1048D0003068DAF81810884206D104208AF80200FD
:1048E0004046FFF766FF9CE701279AE7DAF81800D1
:1048F0003168401ACAF81C003068DAF8181088428B
:104900008ED10020CAF82800AAF82C0000F0AEFFD3
:10491000CAF80C004046FEF771F94046FFF749FF20
:1049200004208AF8020003208AF8010000208AF897
:10493000000076E7012775E700F098FF401B084963
:104940000A68824200D202460A60FFF748FE20460B
:10495000BDE8F047FFF70EBE412500200C250020E2
:10496000102500209C9A0008A89A0008A49A000824
:10497000A09A00082546000898210020382300202E
:10498000AC9A00080100FFFF75432F4F532D494992
:1049900049205469636B205461736B00624800685E
:1049A000010000D00047704760480068604909680E
:1049B00000EB8100001F5F49086070475E4909688D
:1049C0000A0000D0084770475C4909680A0000D017
:1049D000084770475A4909680A0000D008477047DD
:1049E00010B40446019802EB8000001F4FF0807263
:1049F000026040F8044C534A40F8082C4FF0123241
:104A000040F80C2C4FF0033240F8102C4FF00232DB
:104A100040F8142C40F8183C40F81C1C4FF01131A1
:104A200040F8201C4FF0103140F8241C4FF00931A1
:104A300040F8281C4FF0083140F82C1C4FF007318B
:104A400040F8301C4FF0063140F8341C4FF005316F
:104A500040F8381C4FF0043140F83C1D10BC704742
:104A6000F8B539480068010000D0804700F0FEFE2C
:104A70000246364C2068364B196888420ED090307A
:104A80004168511A0160206800F19005D5E902677C
:104A90002868002130187941C5E902011868C0F87A
:104AA0009420FFF775FD2168D1F8B820824200D22A
:104AB0000246C1F8B820274801682268D2F8BC3005
:104AC0008B4201D2C2F8BC1000210160F1BD224826
:104AD0000068010000D00047704710B5FFF746FDA1
:104AE0000446FFF76DFD1D480178491C0170FFF772
:104AF00076FD2046FFF73EFDFDF755FCBDE8104072
:104B0000FDF719BE1649401E486016480268120299
:104B1000120A0260086840F005000860086840F06A
:104B20000200086070470000CC240020849A00082E
:104B3000889A0008B8240020C0240020C424002043
:104B4000C824002061440008D42400202825002027
:104B50002C250020F8240020D82400204025002007
:104B600010E000E020ED00E0C18882881046430894
:104B70000846B3EB500F09D102F0010001F001012A
:104B8000884201D100207047012070470220704701
:104B900010B50446FFF7E8FF002802D0012802D034
:104BA00005E0002010BDB4F9080080B210BDE08817
:104BB0004008A1884908814202D2401A80B210BD43
:104BC000B4F90820511A401880B210BDFF200146E8
:104BD000481E0029FBD1704710B586B001A81021EE
:104BE000FDF708FD01214FF4804002F04BF94FF42E
:104BF0000070ADF8000003208DF8020018208DF839
:104C00000300A24C69462046FDF74AFC4FF4806041
:104C1000ADF8000004208DF8030069462046FDF73A
:104C20003FFC4FF4E130019000200290ADF80C0001
:104C3000ADF810000C20ADF80E00954C01A92046EF
:104C400002F090FB012240F22551204602F0ECFBDD
:104C50000121204602F0DCFB00F042F806B010BD56
:104C6000012240F227718A4802F0DEBB002240F2A6
:104C70002771874802F0D8BB38B50446844D80219F
:104C8000284602F0F2FB0028F9D02146284602F01F
:104C9000E8FB012032BD7F4909880170012070477F
:104CA00010B582B07A4C40F22551204602F0E4FB68
:104CB000002808D06846FFF7EEFF012803D1012144
:104CC000684602F0FDFB40F22771204602F0D4FB5B
:104CD000002801D000F031F813BD6F48007870470C
:104CE00010B56D4C802204F11C0104F1100002F09B
:104CF00021FC4FF4807204F19C01201D02F01AFC8B
:104D00000020207010BD38B50446634D281DFFF704
:104D10003FFF002801D1002032BD01222146281D7D
:104D200002F063FC012801D1012032BD002801D12D
:104D3000002032BD4FF0FF3032BD80B56846FFF72E
:104D4000E2FF01280CD19DF80000FFF795FF012834
:104D500013D1012050490870FFF782FF012002BDE6
:104D600000280AD010F1010F07D1FFF77FFF0020C4
:104D7000494908706FF0010002BDFFF777FF00207E
:104D80004549087002BD70B504460D46B5F5807FF3
:104D900019D8414E301DFFF7FBFEB6F90C10081A6A
:104DA000A84210D32A4692B22146301D02F0D3FB0E
:104DB0000446AC4200D000243078002801D1FFF72F
:104DC000BCFF204670BD002070BD2DE9F047804635
:104DD0008946002426464FF4FA77B9F5807F40D9FA
:104DE0004FEA19255FFA89F9BA4603E0BA4608F591
:104DF0008078761CAE421EDABAF1000F1BD001E0BB
:104E0000AAF1010AFFF769FF012806D1FFF7DEFECC
:104E10001FFA8AFABAF1000FF2D11FFA8AFABAF130
:104E2000000F08D04FF480714046FFF7ACFF041923
:104E3000B0F5807FDAD0AE4225D1B9F1000F22D093
:104E4000BA4649464046FFF79EFF00281AD1FFF7B1
:104E5000BDFE1FFA8AFABAF1000F14D0AAF1010AB6
:104E6000EFE7BA4608E0FFF7B1FE1FFA8AFABAF197
:104E7000000F08D0AAF1010A49464046FFF783FF18
:104E80000028F0D004192046BDE8F0870008014052
:104E90000038014004380140E0170020F8B505460D
:104EA0000F461446DFF8B8030078002803D042F616
:104EB000E1602080F1BD002D03D145F6C350208074
:104EC000F1BDFFF753FB0646FFF77AFBDFF89403CB
:104ED00028606F600020286205F1240000214170E5
:104EE00041601421017005F10800FDF74FFE2846CE
:104EF00000F09CF9DFF870030188491C0180FFF77E
:104F00006EFB3046FFF736FB00202080F1BD00002D
:104F10002DE9F04F89B004460D4692461E46129F79
:104F2000DFF83C030078002803D046F2AE1038804A
:104F3000E0E0002C03D145F6C3503880DAE050465B
:104F4000002802D0B0F5004F2AD12068DFF81413F2
:104F5000884229D1002E01D000203060FFF706FBE7
:104F60008046FFF72DFB04F124004278DFF8FC9225
:104F7000D9F80010002A1BD12162D9F8001091F84D
:104F80003710017001214170002E01D0406830605F
:104F9000FFF725FB4046FFF7EDFA00203880A9E037
:104FA00045F625603880A5E045F6C4503880A1E07C
:104FB000236A99420ED1511C4170002E01D04068E5
:104FC0003060FFF70CFB4046FFF7D4FA45F28270E1
:104FD00038808FE05FEA0A4008D5FFF700FB4046C3
:104FE000FFF7C8FA46F2B010388083E0DFF880029D
:104FF0000078002808D0FFF7F2FA4046FFF7BAFA27
:1050000046F66350388075E09A460AF1360B91F8FF
:1050100037109BF80100814217D29BF80000072847
:105020003FD8DFE800F004373A3A37373A3A50468B
:10503000FDF7EDFED9F8000090F837008BF801007D
:1050400000F051F95046FDF788FE2B460422214618
:105050006846FDF71AFDFFF7C2FA4046FFF78AFAE5
:10506000FDF7BDFBFFF782FA8046FFF7A9FAD9F8F2
:10507000000090F83510002905D002292AD019D354
:1050800003291FD02EE0002E01D0006C30600020DC
:1050900038802AE08BF80110D7E75046FDF75CFD19
:1050A000D3E7FFF79CFA4046FFF764FA46F62A601A
:1050B00038801FE0002E01D0006C306046F2A9104D
:1050C000388012E0002E01D00020306047F2D92055
:1050D00038800AE0002E01D0006C306045F6C250E6
:1050E000388002E046F62B603880FFF778FA4046B9
:1050F000FFF740FA09B0BDE8F08F2DE9F84F0446FC
:105100000D46164656480078002803D046F20E2079
:10511000308089E0002C03D145F6C350308083E015
:1051200020685049884203D045F6C45030807BE067
:10513000FFF71CFA0746FFF743FADFF83081D8F88B
:105140000000216A884208D0FFF749FA3846FFF785
:1051500011FA45F28170308066E000F087FB8146ED
:1051600004F1240ACAF804909AF80100401E8AF853
:105170000100C0B2002808D0FFF731FA3846FFF727
:10518000F9F945F2837030804EE004F1080BBBF86A
:10519000080000280BD1002020628AF80100FFF7E8
:1051A0001EFA3846FFF7E6F9002030803CE0D8F8D8
:1051B000000090F837109AF80020914217D0FDF7C0
:1051C00026FE9AF80000D8F8001081F83700D8F8C9
:1051D000000090F8370000F086F8D8F80000FDF7DE
:1051E000D8FDD8F8000090F8370022490870DBF8A5
:1051F00000008168216291F837008AF800000120E0
:105200008AF80100CDF8009000231A462046FDF7E9
:1052100026FDFFF7E4F93846FFF7ACF9280401D47E
:10522000FDF7DDFA00203080BDE8F18F0BA1C161F0
:105230000021416110490A68002A02D100228261DE
:1052400002E082610A6850610860704700210A4AE2
:105250001160054A118001807047000020000000A5
:10526000402500204D555458382500202825002081
:105270004425002042250020E824002008B584B001
:105280000023029311B90093019302E00090481E9D
:10529000019004AB694607487844183002F0EEF9F3
:1052A000009911B1009A00211170002858BF02988E
:1052B00005B000BD47D3FFFF00201C4902E00020DD
:1052C000086001200028FAD0704710B50024174963
:1052D00001E02034091D08680028FAD0FFF74DF9D5
:1052E0000019C0B210BD10B44109104A52F8213063
:1052F000012400F01F00C0F11F0004FA00F0184361
:1053000042F8210010BC704710B44109074A52F816
:105310002130012400F01F00C0F11F0004FA00F04A
:1053200023EA000042F8210010BC7047BC24002092
:105330000021044A1160024A118001807047000078
:1053400034250020E02400200021044A1160024A94
:10535000118001807047000036250020E4240020E1
:1053600010B400F11002491E89B200231C4609E066
:1053700040F8042B40F8044B20F8044B40F8044B51
:1053800010325B1C9BB28B42F2DB21460160416014
:105390000181C16010BC704770B50446574805686C
:1053A000002D03D145F21E70208070BD5448068840
:1053B000002E03D145F21D70208070BD3146284675
:1053C000FFF7CEFF4C48056086800021C18008466B
:1053D000208070BD10B44289110012D0464A136873
:1053E0000468236043681360D38844891B1BD380FF
:1053F00093884489E318938000224281828102606D
:105400004260084610BC70470181002141818181C2
:1054100001604160704770B44489002C09D10020BC
:105420000880002A00D0106046F2925018800020B8
:105430001FE045686C682E890E80002A01D0E9685B
:10544000116029684160002903D100210160418178
:1054500002E04189491E41812748016829600560B1
:105460008188491C8180C188491EC1800020188024
:10547000204670BC7047F0B4059C45890689B5424A
:1054800003D346F29350208033E01B4EB788002FA1
:1054900003D145F21D7020802BE03568D5F800C09F
:1054A000C6F800C07F1EB780F7887F1CF78046894A
:1054B000002E04D105604560012343810DE0DB0629
:1054C00005D403681D6000232B60056002E043687B
:1054D0002B60456043895B1C438183894689B342C5
:1054E00000D23346838169602A810498E8600020F5
:1054F0002080F0BC70470000B0240020909A000883
:105500008C9A00080021044A1160024A118001802F
:10551000704700003A250020EC2400200021044AB6
:105520001160024A11800180704700003C25002074
:105530000025002000B589B00021964A11609649E7
:105540000968964A1268964B002A03D0B1FBF2F123
:10555000196003E00A22B1FBF2F119601968914A5F
:10556000116000218A4A11608F4A11600B4606E0E3
:105570008E4A02EBC1029380D3801360491C8C4A8F
:10558000128889B29142F3D38A490968002905D06B
:10559000894A1268894B1B689A4203D247F2463106
:1055A00001801CE0864B1B78132B03D346F273213A
:1055B000018014E0089003200790002006900590D9
:1055C000049003927F4800680290019100930023A9
:1055D0000FF215120FF2F4117B48FEF7A9FB09B088
:1055E00000BD30B4022280F82A20012902D0016ACD
:1055F000002905D1416A664A12685118816103E0A9
:10560000634A126851188161836969490988B3FB4B
:10561000F1F201FB1231654A89B202EBC1010A685D
:10562000002A06D1002202614261086001208880C0
:105630002AE0574A14681B1BC3610B6804E04461ED
:105640000361206158610023002B1AD09C69156802
:10565000641BDC61C569AC420AD21C69002C01D014
:105660002346F1E700240461436118612346EBE718
:105670005C69002CE3D10024446103615861086037
:10568000E1E78888401C8880C8888A88904200D2D8
:105690001046C88030BC704710B400F110018A6811
:1056A000434B1B88B2FBF3F403FB14223F4B92B233
:1056B00003EBC2020B681468844205D11800106025
:1056C00007D00023436104E048680361002B00D049
:1056D0005861012088760020086048609088401E4C
:1056E000908010BC704700002DE9F04383B0284D36
:1056F0000BE000F0BBF8041B6846FDF7DBF82A4816
:105700000168A14200D2214601606B4601AA002136
:105710000846FEF70BFD6846FDF79DF800F0A6F879
:1057200004462868401C286021490988B0FBF1F232
:1057300001FB12001D4980B251F83060002700E0E3
:105740000127002FD5D1002EFAD006F10808D8F88D
:1057500008902868D8F810108842F1D13046FFF739
:105760009BFFB8F82000022804D101213046FFF742
:1057700038FF02E0032086F82A00D8F80020100045
:1057800003D0D8F80410304690474E46D9E70000C1
:105790001C25002014250020989A0008B49A0008BF
:1057A000202500202425002018250020C0230020CB
:1057B000C49A0008B89A0008C09A0008949A000891
:1057C000B09A0008BC9A00086822002075432F4F49
:1057D000532D4949492054696D6572205461736B9A
:1057E00000000000704770471748FF21017000203B
:1057F00080F309881548016881F308881448154921
:10580000016062B6FEE772B6EFF3098028B1203876
:1058100080E8F00F10490968086000B50F4880471C
:105820005DF804EB0E480F490A7802700A480E49E9
:105830000A680260106890E8F00F203080F3098851
:105840004EF0040E62B6704722ED00E0B82400204E
:1058500004ED00E00000001028250020614A000847
:1058600042250020432500202C2500200148006807
:1058700070470000041000E000F5E07002689142FB
:1058800003D343689A18914202D380680028F5D167
:105890007047DFF85807016891B94FF48031816093
:1058A0004FF4805141604FF0FF31C160016104212C
:1058B000DFF83C274161C2F8BC11DFF838170160FE
:1058C0000120704701F1080313F0070305D001F12F
:1058D0000803C3F1080303F007035918D21A8161C2
:1058E000C26042F001034B60511828234B60DFF87F
:1058F000FC160969C16170472DE9F84F064601F1B0
:10590000080010F0070008BF884607D001F1080022
:10591000C0F1080000F0070000EB010802F10800E8
:1059200010F0070006D002F10800C0F1080000F0F6
:10593000070082181546A5EB0800A0EB030903EB4E
:10594000080B43F00300C8F80400AB4528BF02F081
:105950003EFF2879C00758BF02F039FFB9F1100F98
:1059600038BF02F034FFB069854209D1F06848447D
:10597000F060C6F818B040F00100CBF804006DE10B
:10598000706985420BD1B0684844B060C6F814B065
:1059900040F00101CBF8041040F80B005EE16868AC
:1059A00000F00301012940F0AD80C008C000019063
:1059B000C00820283AD2D5F808A0EF680090BD4270
:1059C00008BF02F004FF554508BF02F000FF6868F9
:1059D0000099C008C000B0EBC10F18BF02F0F7FE7D
:1059E000009806EBC00000F128018A4507D0316914
:1059F0008A45C0F08280DAF80C10A9427DD1574563
:105A000006D1009A3068012191408843306076E0E9
:105A10002830874205D0306987426ED3B868A842E3
:105A20006BD1CAF80C70C7F808A068E0EF68D5F829
:105A300018A0AF420CD0A8683169884223D3C1684E
:105A4000A94204BFB968A9421DD1C760B8601CE073
:105A500005F11400076837B905F110000768A7B110
:105A600001E00846076807F114010A68002A02BF2E
:105A700007F110010A68002AF3D13169884202D384
:105A80000021016001E002F0A2FEBAF1000F36D061
:105A9000E86906EB800000F5987001688D4208D136
:105AA0000760A7B9EA697068012191408843706076
:105AB00025E03069824508D3DAF81000A84214BF07
:105AC000CAF81470CAF8107001E002F080FEB7B195
:105AD0003069874211D3C7F818A0296929B18142DA
